:020000040800F2
:10000000E819002099010008BD3900080F2C0008EC
:10001000B939000881080008D74100080000000035
:1000200000000000000000000000000001010008C6
:10003000D10800080000000045010008B13F000899
:10004000B3010008B3010008B3010008B3010008C0
:10005000B3010008B3010008B3010008B3010008B0
:10006000B3010008B3010008B3010008B3010008A0
:10007000B3010008B3010008B3010008B301000890
:10008000850800089508000899070008B3010008D2
:10009000B3010008B3010008B3010008B301000870
:1000A000B3010008B3010008B3010008B301000860
:1000B000B3010008C1400008D1400008152C000819
:1000C000B3010008B3010008B3010008B301000840
:1000D000B3010008B3010008B3010008B301000830
:1000E000B3010008B3010008B3010008DFF80CD029
:1000F00000F040FB00480047D5480008E819002000
:10010000224B19680868B0E8F00F80F30988BFF344
:100110006F8F4FF0000080F311884EF00D0E704786
:100120000000000006480068006880F3088862B696
:1001300061B6BFF34F8FBFF36F8F00DF00BF00BF0B
:1001400008ED00E0EFF30980BFF36F8F0F4B1A68E3
:1001500020E9F00F106008B54FF0500080F31188CF
:10016000BFF34F8FBFF36F8F05F056F84FF00000CD
:1001700080F31188BDE8084019680868B0E8F00FFE
:1001800080F30988BFF36F8F704700BF3C000020E9
:10019000EFF3058070470000064880470648004797
:1001A000FEE7FEE7FEE7FEE7FEE7FEE7FEE7FEE727
:1001B000FEE7FEE769400008ED000008202A04DBA6
:1001C000203A21FA02F00021704721FA02F3D040D0
:1001D000C2F12002914008431946704740EA0103EA
:1001E0009B0703D009E008C9121F08C0042AFAD2ED
:1001F00003E011F8013B00F8013B521EF9D27047B1
:10020000D2B201E000F8012B491EFBD27047002258
:10021000F6E710B513460A4604461946FFF7F0FF05
:10022000204610BD80EA010210B502F000434000F4
:1002300022D04A001FD0010E01EB1261C0F356001C
:10024000C2F3560240F4000042F40002A0FB022078
:1002500000047F39140400D0401C50EA124001D43D
:100260004000491EC2B20C0604EBD010401C4008EE
:10027000802A02D003E0002010BD20F001000029F8
:1002800000DA0020184310BD2DE9FE4F804681EAB8
:100290000300C00F0C46009021F0004123F0004500
:1002A000B8EB0200A94105D24046214690461C46C3
:1002B0000B46024623F00040104347D0270DC7F3FA
:1002C0000A00C3F30A510290401A019040286BDAE9
:1002D000C3F3130040F4801B0098924620B1002322
:1002E000D2EB030A63EB0B0B01985946C0F14002B5
:1002F000504600F089F906460D4650465946019A87
:1003000000F091F910EB08006141002487EA1152D6
:1003100084EAE7731A4340D0009A62B3019A012A33
:100320004FEA075215DC001B61EB02014FF000425F
:1003300002EA0752CDE90042001C41F58011324625
:100340002B4600F0C8F903B0BDE8F08F40462146C7
:10035000F9E7001B61EB0201001C41F58013001856
:100360005B412018A2F5001747EB030140EAD57066
:10037000B6196D4111E06D084FEA360645EAC075C1
:100380004FEA0752001B61EB0201001C41F580118E
:1003900049084FEA30000019514132462B4603B05C
:1003A000BDE8F04F00F088B900980122400000231A
:1003B000D0EB020263EBE073009821464FEAE07451
:1003C000B8EB000061EB0401E9E783F000435BE771
:1003D00081F0004158E72DE9FE4F81EA030404F063
:1003E000004421F0004100944FF0000B23F0004343
:1003F00050EA01045ED052EA03045BD0C3F30A540E
:10040000C1F30A552C44A4F2F3340194A0FB025426
:10041000C1F3130141F48011C3F3130343F48013B8
:1004200001FB024400FB034E840A970A44EA81540C
:1004300047EA8357A4FB076802958D0A05FB0785E9
:100440004FEA932C04FB0C542705029D4FEA0658F3
:1004500047EA1637B5EB08056EEB070C870E920ED0
:1004600047EA811742EA8312A7FB0201B6EB0B01B0
:1004700064EB00042B0D43EA0C335E1844EB1C5074
:10048000DA465146E7FB0201C5F313044FEA0B338A
:1004900043EA14534FEA0432019C43EA0603A4F1F1
:1004A0000C040294009CCDE900B400F014F903B0F0
:1004B000BDE8F08F00200146F9E79623002211469F
:1004C00000F0CCB820F00040C10DC0F3160040F49D
:1004D00000007F2901DA00207047962903DCC1F172
:1004E0009601C8407047963988407047C1F30A5258
:1004F00010B5C1F3130140F2FF3341F480119A4269
:1005000001DA002010BD40F233439A42A2F2334296
:1005100003DC5242FFF752FE10BD904010BD00F0C8
:10052000004230F000400AD0C10D01F56071C0F307
:10053000160042EA0151C2084007114370470020EB
:100540000146704730B5041E71F1000404DB4FF022
:100550000044404264EB0101141E73F1000405DB0A
:100560001C464FF00043524263EB04038B4208BF2A
:10057000824230BD30B5041E71F1000404DB4FF03F
:100580000044404264EB0101141E73F1000405DBDA
:100590001C464FF00043524263EB0403994208BFEC
:1005A000904230BD01F0004330B421F0004150EAE8
:1005B000010206D00A0DA2F56072C1F31301002AF0
:1005C00002DC30BC00207047440F44EAC104C10083
:1005D000E01830BC00EBC25000F037B830B50B4625
:1005E000014600202022012409E021FA02F59D4263
:1005F00005D303FA02F5491B04FA02F52844151E37
:10060000A2F10102F1DC30BD202A04DB203A00FA1D
:1006100002F1002070479140C2F1200320FA03F359
:10062000194390407047202A06DBCB17203A41FA45
:1006300002F043EAE07306E041FA02F3D040C2F16F
:10064000200291400843194670470029A8BF70470F
:10065000401C490008BF20F00100704710B4B0FAF8
:1006600080FC00FA0CF050EA010404BF10BC704793
:1006700049B1CCF1200421FA04F411FA0CF118BFAD
:10068000012121430843A3EB0C01CB1D4FEA00617C
:100690004FEA102042BF002010BC704700EBC3504F
:1006A00010440029A4BF10BC7047401C490008BF7B
:1006B00020F0010010BC704710B5141E73F1000447
:1006C00008DA401C41F1000192185B411A4301D144
:1006D00020F0010010BD2DE9F04D92469B4611B16E
:1006E000B1FA81F202E0B0FA80F220329046FFF7D0
:1006F0008BFF04460F4640EA0A0041EA0B015346CD
:100700005A46084313D0114653EA010019D0C8F1E4
:1007100040025046FFF752FD05460E4650465946E8
:100720004246FFF771FF084305D0012004E0204650
:100730003946BDE8F08D0020054346EAE0762C43BB
:1007400037430A986305E40AA0EB08000022FD0A7B
:1007500044EA47540A3002D500200146E9E7010582
:1007600010196941DDE9084500196941BDE8F04DFE
:10077000A2E70000064C074D06E0E06840F00103E8
:1007800094E8070098471034AC42F6D3FFF7B2FC68
:10079000685700088857000810B5024800F051F962
:1007A00010BD00009C00002070B5044600252068A4
:1007B000806800F00100F0B12068806820F001003E
:1007C0002168886000F042FF05460EE000F03EFF21
:1007D000401B022809D9A06A40F01000A062E06A1C
:1007E00040F00100E062012070BD2068806800F0E8
:1007F00001000028EAD10020F6E7000038B50446E1
:100800000025002000902068806800F0010080BB77
:100810002068806840F00100216888601648006800
:100820001649B0FBF1F0009002E00098401E0090E5
:1008300000980028F9D100F009FF054613E000F008
:1008400005FF401B02280ED9A06A40F01000A062EC
:10085000E06A40F00100E06200BF002084F824005C
:1008600000BF012038BD2068806800F0010000282A
:10087000E5D00020F6E700003800002040420F00DD
:1008800000BFFEE710B5024800F0F8FB10BD000005
:100890002001002010B5024800F0F0FB10BD000060
:1008A0006401002030B590F840500124AC40C56B85
:1008B0006C60046863604468102C04D10468A26012
:1008C0000468E16003E00468A1600468E26030BD90
:1008D000704770477047000038B50246002300207B
:1008E000009000BF92F82400012801D1022038BDF9
:1008F000012082F8240000BF4868072812D210683F
:10090000406B0C79641E04EB84051F24AC40A043AB
:100910000D796D1E05EB85050C68AC40204314680D
:10092000606327E048680D2812D21068006B0C79CC
:10093000E41F04EB84051F24AC40A0430D79ED1F98
:1009400005EB85050C68AC4020431468206311E07A
:100950001068C06A0C790D3C04EB84051F24AC4080
:10096000A0430D790D3D05EB85050C68AC40204397
:100970001468E06208680A2812D31068C0680C780E
:100980000A3C04EB44050724AC40A0430D780A3D23
:1009900005EB45058C68AC4020431468E0600FE02F
:1009A000106800690C7804EB44050724AC40A043B0
:1009B0000D7805EB45058C68AC4020431468206138
:1009C0000868102802D00868112827D1174C106831
:1009D000A0421ED11068806800F40000F0B91068D1
:1009E000806840F400001468A0600868102815D1E1
:1009F0000F4800680F4CB0FBF4F000EB80004000A3
:100A0000009002E00098401E009000980028F9D164
:100A100004E0906A40F020009062012300BF0020B3
:100A200082F8240000BF184661E70000002401405E
:100A30003800002040420F00704701460868C06C33
:100A4000704710B504462068406800F02000202858
:100A50002FD12068006800F00200022829D1A06A86
:100A600000F0100018B9A06A40F40070A06220687D
:100A7000806800F46020B0F5602F13D1E06888B979
:100A80002068406820F0200021684860A06A20F4B7
:100A90008070A062A06A00F4805018B9A06A40F08B
:100AA0000100A0622046FFF7C7FF6FF01200216827
:100AB00008602068406800F0800080283BD12068F2
:100AC000006800F00400042835D1A06A00F010008E
:100AD00018B9A06A40F40050A0622068806800F451
:100AE000E040B0F5E04F0DD02068406800F4806031
:100AF000D0B92068806800F46020B0F5602F13D171
:100B0000E06888B92068406820F08000216848606B
:100B1000A06A20F48050A062A06A00F4807018B926
:100B2000A06A40F00100A0622046FFF7D3FE6FF0FC
:100B30000C00216808602068406800F040004028F0
:100B40000FD12068006800F0010050B1A06A40F4A5
:100B50008030A062204600F0A7F86FF00100216805
:100B6000086010BD2DE9F04104460027002500264D
:100B7000A84614B90120BDE8F081A06810B16069F1
:100B800000B100BFA06A30B90020E06284F8240000
:100B9000204600F08BF82046FFF706FE0746A06AC5
:100BA00000F01000002873D1002F71D1A06A20F44A
:100BB000885040F00200A062E16960680843E16883
:100BC00040EA41000643A068B0F5807F02D0A068EB
:100BD000012802D14FF4807000E0002005436069D5
:100BE000012811D1E06838B9A069401E4FF40061B6
:100BF00041EA4030054307E0A06A40F02000A062CF
:100C0000E06A40F00100E0622068406820F469403A
:100C100028432168486020688068214908403043A3
:100C200021688860A068B0F5807F02D0A0680128A4
:100C300002D14FF4807000E00020B0F5807F03D136
:100C4000208A401E4FEA00582068C06A20F47000D5
:100C500040EA08002168C86220688068114908409D
:100C6000B04208D10020E062A06A20F0020040F00B
:100C70000100A06211E0A06A20F0020040F0100024
:100C8000A062E06A40F00100E062012705E0FFE7B2
:100C9000A06A40F01000A062012738466BE7000010
:100CA000FDF7E1FFFE0E1FFF7047000010B586B094
:100CB0000446002002900390049005901849206893
:100CC00088422AD100BF1748806940F40070154956
:100CD00088610846806900F40070019000BF00BF81
:100CE00000BF0846806940F00400886108468069BA
:100CF00000F00400019000BF00BF402002900320DC
:100D0000039002A9084800F009FB002205211220E7
:100D100000F0FBFF122000F0EBFF06B010BD00005A
:100D2000002401400010024000080140F8B50446CC
:100D30000D46002600200090002700F087FC0646A4
:100D40002068806800F4807050B1A06A40F02000F4
:100D5000A06200BF002084F8240000BF0120F8BD7D
:100D60002068406800F48070F8B92068C06A00F418
:100D70007000D0B912E0681C80B125B100F066FCAB
:100D8000801BA8420AD9A06A40F00400A06200BFFC
:100D9000002084F8240000BF0320E0E720680068FA
:100DA00000F002000028E6D050E0022001F000F838
:100DB00036490968B1FBF0F021680969344A1140ED
:100DC00091B92168C9689211114069B9216809690E
:100DD000304A114031B92168C9689211114009B9EE
:100DE000142117E0292115E021680969294A1140D9
:100DF00021B92168C9689211114041B1216809697E
:100E0000254A114029B92168C968114009B95421FE
:100E100000E0FC2100FB01F715E0681C80B125B162
:100E200000F014FC801BA8420AD9A06A40F004001C
:100E3000A06200BF002084F8240000BF03208EE7DA
:100E40000098401C00900098B842E6D36FF0120062
:100E500021680860A06A40F40070A0622068806881
:100E600000F46020B0F5602F0DD1E06858B9A06A99
:100E700020F48070A062A06A00F4805018B9A06AC3
:100E800040F00100A062002069E700003800002067
:100E900024499224922449124992240070B50446B0
:100EA000002500BF94F82400012801D1022070BD64
:100EB000012084F8240000BF2046FFF79FFC054670
:100EC000002D77D1A06A40F20121884340F4807060
:100ED000A0623C492068884208D13B48006800F481
:100EE000702008B9012002E0002000E0012078B164
:100EF000A06A20F48010A0622068406800F480603E
:100F000000B3A06A20F4005040F48050A06219E0C1
:100F1000A06A40F48010A0622B49091F2068884213
:100F200003D028492068884204D12748006800F48B
:100F3000806000E0002028B1A06A20F4005040F456
:100F40008050A062A06A00F4805020B1E06A20F0D6
:100F50000600E06201E00020E06200BF002084F8AB
:100F6000240000BFC01E216808602068806800F46B
:100F70006020B0F5602F16D112492068884208D150
:100F80001148006800F4702008B9012002E0002038
:100F900000E0012038B12068806840F4A00021689A
:100FA00088600CE006E02068806840F480102168CA
:100FB000886004E000BF002084F8240000BF2846B9
:100FC00075E70000002801400424014070B5044684
:100FD000002594F82100022803D00420A0630125F5
:100FE00048E02068006820F00E0021680860206852
:100FF000006820F00100216808601F4920688842CD
:1010000001D1012026E01C4914312068884201D119
:1010100010201FE0184928312068884201D180152E
:1010200018E015493C312068884201D1801411E054
:10103000114950312068884202D14FF4803009E0D4
:101040000D4964312068884202D14FF4801001E0DC
:101050004FF08070084908394860012084F8210069
:1010600000BF002084F8200000BF606B10B1204654
:10107000616B8847284670BD0800024070B5044681
:10108000E06B05682068066894F8401004208840EA
:101090002840002846D006F00400002842D02068EE
:1010A000006800F0200028B92068006820F00400E3
:1010B0002168086057492068884201D1042027E050
:1010C000544914312068884201D1402020E0514920
:1010D00028312068884201D1001519E04D493C3182
:1010E0002068884202D14FF4804011E049495031D4
:1010F0002068884202D14FF4802009E045496431DC
:101100002068884202D14FF4800001E04FF08060F7
:10111000404908394860E06A00287AD02046E16AF0
:10112000884776E094F84010022088402840A0B319
:1011300006F0020088B32068006800F0200040B983
:101140002068006820F00A0021680860012084F807
:10115000210030492068884201D1022028E02D4931
:1011600014312068884201D1202021E0294928310A
:101170002068884201D140151AE026493C31206898
:10118000884202D14FF4005012E0224950312068C9
:10119000884203D14FF400300AE017E01D49643162
:1011A0002068884202D14FF4001001E04FF0007037
:1011B00018490839486000BF002084F8200000BFAB
:1011C000A06A30B32046A16A884722E094F8401014
:1011D000082088402840E0B106F00800C8B1206827
:1011E000006820F00E002168086094F8401001208B
:1011F0008840E16B48600120A06384F8210000BFB3
:10120000002084F8200000BF206B10B12046216B25
:10121000884770BD080002400146002209B901203C
:101220007047164B0868C01A1423B0FBF3F0800017
:10123000086412480838C863022081F82100086851
:10124000026843F6F0708243D1E901031843CB688A
:1012500018430B6918434B6918438B691843CB69D2
:10126000184302430868026000208863012081F867
:101270002100002081F8200000BFD1E708000240D3
:101280002DE9F04104460D4616461F464FF0000872
:1012900000BF94F82000012802D10220BDE8F081AF
:1012A000012084F8200000BF94F8210001282CD1EF
:1012B000022084F821000020A0632068006820F04C
:1012C0000100216808603B46324629462046FFF768
:1012D000E9FAE06A30B12068006840F00E00216849
:1012E00008600BE02068006820F0040021680860B6
:1012F0002068006840F00A002168086020680068E3
:1013000040F001002168086006E000BF002084F87A
:10131000200000BF4FF002084046BFE72DE9F84724
:1013200003460024002000258446002700226EE1A9
:101330004FF0010808FA02F4D1F8008008EA04002E
:10134000A0427DD1DFF8D0A2D1F80480A8EB0A0931
:10135000D0453AD014DCB8F1030F50D009DCB8F115
:10136000000F31D0B8F1010F1CD0B8F1020F49D1F4
:1013700020E0B8F1110F18D0B8F1120F42D11EE0E1
:10138000B9F5881F25D006DCB9F5803F20D0B9F526
:10139000801F37D11AE0B9F5001F18D0B9F5041F26
:1013A00030D117E0D1F80CC02DE0D1F80C8008F155
:1013B000040C28E0D1F80C8008F1080C23E0D1F8E7
:1013C0000C8008F10C0C1EE000BF00BF00BF00BF86
:1013D00000BF00BFD1F80880B8F1000F02D14FF074
:1013E000040C0BE0D1F80880B8F1010F03D14FF0E5
:1013F000080C1C6102E04FF0080C5C6103E04FF048
:10140000000C00E000BF00BFFF2801D8984601E0B3
:1014100003F104084646FF2802D84FEA820803E099
:10142000A2F108084FEA88084746D6F800804FF036
:101430000F0909FA07F928EA09080CFA07F900E088
:1014400088E048EA0908C6F80080D1F8048008F06E
:101450008058B8F1805F7DD100BFDFF8C081D8F837
:10146000188048F00108DFF8B491C9F81880C84620
:10147000D8F8188008F00108CDF8008000BF00BF40
:101480004FEAB9384FEA920958F829504FEA827862
:101490004FEA18794FF00F0808FA09F825EA08050D
:1014A000DFF87C81434502D14FF0000816E0DFF8F9
:1014B0007481434502D14FF001080FE0DFF86881E5
:1014C000434502D14FF0020808E0DFF86081434550
:1014D00002D14FF0030801E04FF004084FEA82798F
:1014E0004FEA197908FA09F848EA0505DFF840815A
:1014F0004FEA920948F82950D1F8048008F480385E
:10150000B8F5803F0AD1DFF82C81D8F8008048EA8E
:101510000008DFF82091C9F8008009E0DFF81481A5
:10152000D8F8008028EA0008DFF80891C9F80080A0
:10153000D1F8048008F40038B8F5003F10D1DFF886
:10154000F48008F10408D8F8008048EA0008DFF8C1
:10155000E49000E05AE009F10409C9F800800DE0C8
:10156000DFF8D08008F10408D8F8008028EA0008E5
:10157000DFF8C09009F10409C9F80080D1F80480AF
:1015800008F48018B8F5801F0ED1DFF8A88008F1A4
:101590000808D8F8008048EA0008DFF8989009F1B8
:1015A0000809C9F800800DE0DFF8888008F1080814
:1015B000D8F8008028EA0008DFF8789009F10809D7
:1015C000C9F80080D1F8048008F40018B8F5001FAD
:1015D0000ED1DFF8608008F10C08D8F8008048EAE6
:1015E0000008DFF8509009F10C09C9F800800DE0FF
:1015F000DFF8408008F10C08D8F8008028EA0008DD
:10160000DFF8309009F10C09C9F80080521C102A4B
:10161000FFF48EAEBDE8F887000011100010024004
:1016200000080140000C014000100140001401407E
:101630000800014000040140C2684A40C26070478F
:101640000AB1016101E00B040361704701480068C1
:10165000704700002C000020704770472DE9F041D2
:10166000064630688769306844693068456896F88E
:101670003E80B8F1100F02D0B8F1400F58D104F0FD
:10168000011030B105F4007018B1304601F031FF9F
:1016900013E04E48204030B105F4007018B13046D8
:1016A00001F0FDFD09E04948801F204028B105F404
:1016B000007010B1304601F0F9FD45483840D8B10E
:1016C00042487830204050B105F4806038B13F483E
:1016D000001F204018B9304601F03CFD74E03B4843
:1016E000001F204000286FD005F4007000286BD048
:1016F000304601F0DFFC67E034483830204050B11C
:1017000005F4806038B13148001F204018B93046D8
:1017100001F061FC58E02D48001F2040002853D004
:1017200005F4007000284FD0304601F0D3FB4BE0A9
:101730002648801F204030B105F4007018B13046B3
:1017400001F07CFF40E021480830204030B105F432
:10175000007018B1304601F08DFF35E01C4838406C
:10176000C8B11A487830204050B105F4806038B1D3
:101770001648001F204018B9304601F03CFF23E016
:101780001248001F2040F8B105F40070E0B1304667
:1017900001F023FF18E00D483830204050B105F427
:1017A000806038B10948001F204018B9304601F068
:1017B000F0FE09E00548001F204028B105F4007044
:1017C00010B1304601F0D6FEBDE8F08108000100FE
:1017D000040010007047000070B504460026002584
:1017E0000CB9012070BD94F83D0028B9002084F8A0
:1017F0003C00204600F06AF9242084F83D0020686F
:10180000006820F001002168086000F009FD05462D
:101810004C496068884206D84B48854201D2012075
:1018200007E0002005E04948854201D2012000E0A0
:101830000020012800D1D5E74548B5FBF0F6206827
:10184000466040496068884201D8701C07E04FF448
:10185000967070434FF47A71B0FBF1F0401C216830
:10186000086238496068884214D8681E6168490077
:10187000B0FBF1F0401CC0F30B00042801D204209F
:101880003DE0681E61684900B0FBF1F0401CC0F308
:101890000B0034E0A06838B9681E616801EB4101B3
:1018A000B0FBF1F0401C0AE0681E616801EBC10268
:1018B00002EB0111B0FBF1F0401C40F48040C0F39A
:1018C0000B0008B901201AE0A06848B9681E6168D9
:1018D00001EB4101B0FBF1F0401CC0F30B000CE048
:1018E000681E616801EBC10202EB0111B0FBF1F06F
:1018F000401CC0F30B0040F4804040F400402168DD
:10190000C861D4E90701084321680860D4E90310DD
:10191000084321688860D4E9050108432168C8604C
:101920002068006840F00100216808600020206401
:10193000202084F83D000020206384F83E0000BF92
:1019400050E70000A086010080841E0000093D00D1
:1019500040420F007047704700BF7047F8B504461B
:101960000D4616461F460020009094F83D002028A2
:101970007ED1514800681921B0FBF1F04FF47A7123
:10198000B0FBF1F000EBC00101EB0010009000BFD4
:101990000098411E009158B900202063202084F84F
:1019A0003D0000BF002084F83C0000BF0320F8BDCC
:1019B00020688069C0F340000028E9D100BF94F896
:1019C0003C00012801D10220F1E7012084F83C000D
:1019D00000BF2068006800F0010028B92068006896
:1019E00040F00100216808602068006820F4006071
:1019F00021680860212084F83D00102084F83E0012
:101A000000202064666267852C48E062608D208536
:101A10006564208D68B32A48616B88622948616BD0
:101A200008630020616BC862616B4863238DD4F842
:101A300000C00CF11002616A606BFFF721FC2068A6
:101A4000006840F48060216808602068006840F405
:101A500080702168086000BF002084F83C0000BF4F
:101A60002068406840F4407021684860206801E0C8
:101A70001FE005E0406840F400602168486016E01F
:101A80002068006840F48060216808602068006871
:101A900040F480702168086000BF002084F83C009A
:101AA00000BF2068406840F4E06021684860002082
:101AB0007DE702207BE70000380000200000FFFFE8
:101AC000BF2C00088D2C00087047704710B586B0F9
:101AD000044600200290039004900590334920684A
:101AE000884260D100BF3248806940F00800304928
:101AF00088610846806900F00800019000BF00BFBF
:101B0000C0200290122003900320059002A92948CA
:101B1000FFF704FC00BF2648C06940F400102449C8
:101B2000C8610846C06900F40010019000BF00BF02
:101B30002148224908601020486000211F48816028
:101B40008021C1600021016141618161C161FFF7B4
:101B500063FB08B1FEF7BDFE00BF18486063446236
:101B600000BF154814301649086000204860002165
:101B7000134881608021C160002101614161816160
:101B8000C161FFF749FB08B1FEF7A3FE00BF0C4897
:101B9000A063446200BF002205211F2000F0B5F8B9
:101BA0001F2000F0A5F806B010BD00000054004052
:101BB00000100240000C01406C0002402001002097
:101BC00064010020704770470348006803490978A2
:101BD00008440149086070472C00002034000020B0
:101BE00010B50848006840F010000649086003205E
:101BF00000F0CAF8002000F007F800F049F80020D3
:101C000010BD00000020024070B588B004460025D9
:101C10000026002221461E2000F077F81E2000F04A
:101C200067F800BF1648C06940F004001449C86155
:101C30000846C06900F00400019000BF00BF02A97F
:101C400003A800F0C5FA00F0EBFA45000D48B5FB1B
:101C5000F0F0461E0C480D49086040F2E7310B4891
:101C6000C160466000210161816000F096FD20B9ED
:101C7000064800F0CFFD08B070BD0120FBE7000072
:101C80000010024040420F0000080040F80300200E
:101C900008B500BF1448806940F00100124988610E
:101CA0000846806900F00100009000BF00BF00BF3F
:101CB0000846C06940F08050C8610846C06900F01D
:101CC0008050009000BF00BF00220F21901E00F046
:101CD0001CF800BF0549486820F0E06040F0007043
:101CE000486000BF08BD0000001002400000014035
:101CF00000BF00F01F02012191404209920002F151
:101D0000E022C2F8001100BF70472DE9F05F804665
:101D10000D461646002701F053FE074639462A466F
:101D2000334601F00700C0F1070ABAF1040F02D9E7
:101D30004FF0040A01E0C0F1070AD14600F1040A9D
:101D4000BAF1070F02D24FF0000A01E0A0F1030A36
:101D5000D4464FF0010A0AFA09FAAAF1010A0AEA7E
:101D6000020A0AFA0CFA4FF0010B0BFA0CFBABF16A
:101D7000010B0BEA030B4AEA0B042146404601F033
:101D800027FEBDE8F09F000000BF00F00702064BF1
:101D900019684FF6FF031940044B0B4343EA022135
:101DA000014B196000BF70470CED00E00000FA0520
:101DB0002DE9F04385B006463DA30FCB01AC0FC41F
:101DC0003FA0006800904FF0000800250027002485
:101DD000A146012E30D0022E58D0102E61D13948A4
:101DE0004468006800F0807000B301A8C4F3834128
:101DF000475C04F4803070B132484068C0F3404022
:101E00001DF8008004F4803040B12F48B0FBF8F09A
:101E100000FB07F502E02D4807FB00F52948406864
:101E200000F48000B0F5800F01D1A94603E06800FE
:101E30000321B0FBF1F935E02248046A04F4407054
:101E4000B0F5807F05D104F0020010B14FF40049D5
:101E50001BE004F44070B0F5007F07D11948406AD8
:101E600000F0020010B149F640490EE004F4407061
:101E7000B0F5407F07D11348006800F4003010B17E
:101E80004FF2244901E04FF000090BE000F0D8F9CF
:101E90000C494968C1F38131491C4900B0FBF1F993
:101EA00000E000BF00BF484605B0BDE8F083000079
:101EB00002030405060708090A0B0C0D0E0F10108B
:101EC000010200000010024000127A0000093D00EB
:101ED000F8B5044600260025207800F0010000280F
:101EE0006BD000274348C06900F0805070B900BF34
:101EF0004048C06940F080503E49C8610846C0690A
:101F000000F08050009000BF00BF01273A480068F1
:101F100000F48070B0B93848006840F480703649E9
:101F20000860FFF793FB064606E0FFF78FFB801B78
:101F3000642801D90320F8BD2F48006800F48070A0
:101F40000028F2D02B48006A00F440752DB3A08819
:101F500000F44070A84220D02648006A20F4407562
:101F6000012026490860002008602248056205F02B
:101F7000010090B1FFF76AFB064608E0FFF766FB39
:101F8000801B41F28831884201D90320D3E71948E8
:101F9000006A00F002000028F0D01648006A20F421
:101FA00040706168084313490862012F04D1084654
:101FB000C06920F08050C86100BF207800F00200A6
:101FC000022807D10B48406820F44040A16808432C
:101FD00008494860207800F01000102807D1054813
:101FE000406820F48000E16808430249486000200E
:101FF000A1E700000010024000700040400442428F
:1020000070B504460D4600266D48006800F00700D4
:10201000A8420ED26A48006820F0070028436849A9
:1020200008600846006800F00700A84201D00120BF
:1020300070BD207800F0020002281DD1207800F049
:102040000400042805D15F48406840F4E0605D4921
:102050004860207800F00800082805D159484068F9
:1020600040F46050574948605648406820F0F000FE
:10207000A168084353494860207800F00100002817
:102080005DD06068012806D14E48006800F4003039
:1020900090B90120CCE76068022806D14948006861
:1020A00000F0007040B90120C2E74648006800F027
:1020B000020008B90120BBE74248406820F0030055
:1020C000616808433F494860FFF7C0FA0646606808
:1020D000012810D108E0FFF7B9FA801B41F28831DE
:1020E000884201D90320A3E73648406800F00C007D
:1020F0000428F0D123E06068022810D108E0FFF73F
:10210000A5FA801B41F28831884201D903208FE76C
:102110002C48406800F00C000828F0D10FE008E0DF
:10212000FFF794FA801B41F28831884201D90320DD
:102130007EE72448406800F00C000028F0D12048D9
:10214000006800F00700A8420ED91D48006820F082
:10215000070028431A4908600846006800F0070095
:10216000A84201D0012063E7207800F00400042891
:1021700007D11448406820F4E060E1680843114941
:102180004860207800F00800082808D10D48406811
:1021900020F46050216940EAC1000A49486000F01B
:1021A0005FF808494968C1F30311074A515CC84008
:1021B000064908600020FFF727FD002038E70000EF
:1021C0000020024000100240205700083800002084
:1021D0000F2202600D4A526802F0030242600B4A6D
:1021E000526802F0F0028260084A526802F4E0622B
:1021F000C260064A526802F46052D2080261044A80
:10220000126802F007020A607047000000100240E6
:10221000002002400148006870470000380000209C
:1022200000B5FFF7F7FF04494968C1F30221034AEB
:10223000515CC84000BD000000100240305700084B
:1022400000B5FFF7E7FF04494968C1F3C221034A1B
:10225000515CC84000BD000000100240305700082B
:10226000F0B585B00FF26C0C9CE8E01001A8A0E876
:10227000E0101CA52D6800950021002200230024F9
:102280000020194D696801F00C05F5B1042D02D04C
:10229000082D19D101E0154819E001ADC1F38346BD
:1022A000AC5D01F4803555B10F4D6D68C5F3404507
:1022B0001DF805200D4D6543B5FBF2F302E00C4D12
:1022C00004FB05F3184602E000BF084800BF00BF4A
:1022D00005B0F0BD02030405060708090A0B0C0D42
:1022E0000E0F1010010200000010024000127A00D0
:1022F00000093D00F8B504460025207800F00100F3
:10230000002878D0F848406800F00C0004280CD071
:10231000F548406800F00C00082811D1F2484068E8
:1023200000F48030B0F5803F0AD1EF48006800F437
:10233000003000285FD0606800285CD10120F8BD23
:1023400000BF6068B0F5803F06D1E748006840F400
:102350008030E549086028E0606858B9E2480068C4
:1023600020F48030E04908600846006820F48020AE
:1023700008601AE06068B0F5A02F0BD1DA48006859
:1023800040F48020D84908600846006840F4803056
:1023900008600AE0D448006820F48030D249086020
:1023A0000846006820F48020086000BF606888B19B
:1023B000FFF74CF9054606E0FFF748F9401B642893
:1023C00001D90320BBE7C848006800F400300028AA
:1023D000F2D010E0FFF73AF9054606E0FFF736F9CC
:1023E000401B642801D90320A9E7BF48006800F416
:1023F00000300028F2D1207800F00200022857D1E6
:10240000B948406800F00C0050B1B748406800F08F
:102410000C00082818D1B448406800F4803098B9FE
:10242000B148006800F0020020B12069012801D005
:10243000012084E7AC48006820F0F800616940EAB8
:10244000C100A949086033E02069E8B10120A7492B
:102450000860FFF7FBF8054606E0FFF7F7F8401BBA
:10246000022801D903206AE79F48006800F00200B3
:102470000028F2D09C48006820F0F800616940EA2A
:10248000C1009949086013E0002098490860FFF7EF
:10249000DDF8054606E0FFF7D9F8401B022801D910
:1024A00003204CE79048006800F002000028F2D1B9
:1024B000207800F0080008282DD1A069B8B10120CB
:1024C0008B490860FFF7C2F8054606E0FFF7BEF843
:1024D000401B022801D9032031E78348406A00F0FD
:1024E00002000028F2D0012001F086FA13E000205B
:1024F0007F490860FFF7AAF8054606E0FFF7A6F84F
:10250000401B022801D9032019E77748406A00F0F0
:1025100002000028F2D1207800F00400042873D1D2
:1025200000267148C06900F0805070B900BF6E4845
:10253000C06940F080506C49C8610846C06900F02D
:102540008050009000BF00BF01266A48006800F478
:102550008070B0B96748006840F4807065490860D1
:10256000FFF774F8054606E0FFF770F8401B642893
:1025700001D90320E3E65F48006800F4807000287A
:10258000F2D000BFE068012806D15748006A40F049
:1025900001005549086227E0E06858B95248006ACE
:1025A00020F00100504908620846006A20F004004B
:1025B000086219E0E06805280BD14B48006A40F03A
:1025C0000400494908620846006A40F001000862B8
:1025D0000AE04548006A20F00100434908620846C5
:1025E000006A20F00400086200BFE068A0B1FFF7B5
:1025F0002DF8054609E0FFF729F8401B41F2883124
:10260000884202D903209AE622E03748006A00F0A7
:1026100002000028EFD012E0FFF718F8054608E0A6
:10262000FFF714F8401B41F28831884201D903209A
:1026300085E62D48006A00F002000028F0D1012E46
:1026400005D12948C06920F080502749C86100BFE2
:10265000E069C8B32448406800F00C00082860D046
:10266000E069022848D1002020490866FEF7EEFF05
:10267000054606E0FEF7EAFF401B022801D90320C9
:102680005DE61948006800F000700028F2D1206A69
:10269000B0F5803F07D11448406820F40030A168AD
:1026A000084311494860D4E9080108430E494968C4
:1026B00021F4741108430C49486001200B49086655
:1026C000FEF7C4FF054607E02DE0FEF7BFFF401B05
:1026D000022801D9032032E60348006800F00070A8
:1026E0000028F2D01FE0000000100240000042422B
:1026F000800442420070004000200C490866FEF74A
:10270000A5FF054606E0FEF7A1FF401B022801D900
:10271000032014E60648006800F000700028F2D19B
:1027200001E001200BE6002009E600000000424223
:102730000010024070477047024600BF92F83C000C
:10274000012801D102207047012082F83C0000BF1F
:10275000022082F83D001068406820F07000136885
:102760005860106840680B68184313685860106818
:10277000806820F0800013689860106880684B685B
:10278000184313689860012082F83D0000BF0020C4
:1027900082F83C0000BF00BFD5E710B504460CB975
:1027A000012010BD94F83D0028B9002084F83C00B9
:1027B000204600F00DF8022084F83D00211D20681D
:1027C00001F08EFC012084F83D000020E9E70000C4
:1027D00038B504460D492068884215D100BF0C4821
:1027E000C06940F002000A49C8610846C06900F0AB
:1027F0000200009000BF00BF002205211D20FFF74E
:1028000084FA1D20FFF774FA38BD00000004004070
:102810000010024001460868C06840F001000A68E4
:10282000D0600868006840F001000A68106000206D
:1028300070472DE9F04104460D46002600BF94F88C
:102840003C00012802D10220BDE8F081012084F87B
:102850003C0000BF022084F83D002068866826F016
:10286000770626F47F4620688660286850283BD08B
:102870000CDC202860D004DC002853D0102865D15F
:1028800055E030285DD0402860D141E0602835D047
:1028900070280DD0B0F5805F03D0B0F5005F55D142
:1028A00015E02068806820F00700216888604EE00D
:1028B000D5E902136A68206801F04CFC206886683C
:1028C00026F0770646F07706206886603FE0D5E977
:1028D00002136A68206801F03DFC2068806840F4BB
:1028E00080402168886032E0EA686968206801F009
:1028F00047FC5021206801F039FC28E0EA6869684B
:10290000206801F052FC6021206801F02FFC1EE0DD
:10291000EA686968206801F033FC4021206801F012
:1029200025FC14E00021206801F020FC0FE01021BC
:10293000206801F01BFC0AE02021206801F016FC51
:1029400005E03021206801F011FC00E000BF00BF6D
:10295000012084F83D0000BF002084F83C0000BF47
:1029600000BF71E7704710B5044620680069C0F3E6
:102970004000D8B12068C068C0F34000B0B16FF02B
:10298000020021680861012020772068806900F03A
:10299000030018B12046FFF7E5FF05E0204600F0F0
:1029A000ADF8204600F0ABF80020207720680069E1
:1029B000C0F38000D8B12068C068C0F38000B0B117
:1029C0006FF0040021680861022020772068806988
:1029D00000F4407018B12046FFF7C4FF05E0204620
:1029E00000F08CF8204600F08AF80020207720685C
:1029F0000069C0F3C000D8B12068C068C0F3C0004F
:102A0000B0B16FF0080021680861042020772068C9
:102A1000C06900F0030018B12046FFF7A3FF05E0EE
:102A2000204600F06BF8204600F069F8002020777F
:102A300020680069C0F30010D8B12068C068C0F3F6
:102A40000010B0B16FF010002168086108202077F5
:102A50002068C06900F4407018B12046FFF782FF7B
:102A600005E0204600F04AF8204600F048F8002033
:102A700020772068006900F0010058B12068C06824
:102A800000F0010030B16FF00100216808612046BC
:102A900000F036F820680069C0F3C01058B1206813
:102AA000C068C0F3C01030B16FF0800021680861C9
:102AB0002046FFF73FFE20680069C0F3801058B140
:102AC0002068C068C0F3801030B16FF0400021680A
:102AD0000861204600F09AF820680069C0F34010B1
:102AE00058B12068C068C0F3401030B16FF02000CA
:102AF000216808612046FFF71EFE10BD7047704731
:102B000010B5044636492068884253D1011435482F
:102B1000FEF792FD3448007830BB344834490988C8
:102B2000405C3449087032480088401C30490880B5
:102B30002E480988405C2F4948702D480088401C69
:102B40002B49088002232B4AC2212B48FEF706FF9F
:102B500027480088B0F5807F02D1002024490880F2
:102B600001202149087025E0244825490988405C56
:102B70002049087022480088401C214908801F48CD
:102B80000988405C1B4948701D480088401C1C494E
:102B900008800223174AC4211748FEF7DFFE1848B1
:102BA0000088B0F5807F02D1002015490880002000
:102BB0000D4908701349206888420AD112480078EC
:102BC000401C1149087008460078142801D10020E3
:102BD00008700C492068884201D1FEF7F5FF10BD4E
:102BE00000040040001001400B000020E80100201C
:102BF0000C00002008000020CC000020E80200208B
:102C00000E0000200008004018000020704700BFA0
:102C1000FEE7000010B50248FEF720FD10BD0000E1
:102C2000CC00002070B505466C6A2068006820F46E
:102C300080602168086000206085616B4863A16B3B
:102C4000486394F83D00602810D1202084F83D00AE
:102C5000002084F83E0020642068006820F0010015
:102C6000216808602046FEF7F7FC0EE0202084F87B
:102C70003D00002084F83E002068006820F001003C
:102C8000216808602046FEF7A5FD70BD70B50546B9
:102C90006C6A2068006820F4806021680860002069
:102CA0006085202084F83D00002084F83E00206CE0
:102CB00040F0100020642046FEF78CFD70BD2DE929
:102CC000F04105466C6A94F83D6094F83E70212E00
:102CD00003D0222E10D1202F0ED12068406820F47E
:102CE000006021684860002060852068406840F4EA
:102CF00040702168486033E02068006820F48060FC
:102D0000216808602068006840F40070216808604D
:102D10002068406820F4805021684860206840683E
:102D200020F400602168486000206085206C18B1A4
:102D30002046FEF74FFD13E0202084F83D0094F874
:102D40003E00402806D1002084F83E002046FEF7D1
:102D5000BBFE05E0002084F83E002046FEF7FBFDA8
:102D6000BDE8F08170B5044694F83D50292D01D09E
:102D70002A2D05D100202063282084F83D0011E091
:102D800094F83D00602809D02068406800F4006095
:102D9000B0F5006F02D0202084F83D0000202063B1
:102DA00084F83E002068006820F400602168086014
:102DB0002068406800F40060B0F5006F40D12068E2
:102DC000406820F4006021684860606B90F8210042
:102DD000012814D03D48616B4863606BFEF7F6F83C
:102DE00000285BD02068006820F00100216808609E
:102DF000202084F83D00606B416B88474EE03348EB
:102E0000A16B4863A06BFEF7E1F8002846D020686C
:102E10004069C0F3801030B120680069C1B2626AB5
:102E2000501C606211702068006820F00100216869
:102E30000860202084F83D00A06B416B88472DE09E
:102E400094F83D0060281AD1202084F83D0000202D
:102E5000206420684069C0F3801030B120680069A8
:102E6000C1B2626A501C606211702068006820F074
:102E70000100216808602046FEF7EEFB0EE02068A6
:102E80004069C0F3801030B120680069C1B2626A45
:102E9000501C606211702046FEF79CFC94F83D00C7
:102EA000282811D1206C00F0040004280CD1084817
:102EB000E06200202063202084F83D00002084F898
:102EC0003E002046FEF746FD70BD0000252C0008A0
:102ED0000000FFFF70B50446E56A608D032817D136
:102EE000042D04D0082D02D015F5803F05D12068AF
:102EF000006820F480602168086020680069C1B221
:102F0000626A501C60621170608D401E608560E0D6
:102F1000608D022853D1042D1AD0082D18D015F534
:102F2000803F15D0022D06D02068006820F4806014
:102F30002168086005E02068006840F4806021682E
:102F400008602068406820F44070216848600BE009
:102F50002068406820F4407021684860206800685C
:102F600040F400702168086020680069C1B2626A9C
:102F7000501C60621170608D401E60852068006981
:102F8000C1B2626A501C60621170608D401E608523
:102F9000202084F83D000020206394F83E00402863
:102FA00006D1002084F83E002046FEF78DFD10E09B
:102FB000002084F83E002046FEF7CDFC09E02068A2
:102FC0000069C1B2626A501C60621170608D401E5F
:102FD0006085002070BD70B5044694F83D0022283D
:102FE00066D10025658D032D0AD920680069C1B21C
:102FF000626A501C60621170608D401E608556E0F0
:10300000022D01D0032D1CD1E06A02280CD02068CB
:10301000006820F48060216808602068006840F43F
:1030200000602168086005E02068006840F4806066
:10303000216808602068406820F48060216848604A
:1030400035E0E06A022806D02068006820F480603D
:103050002168086005E02068006840F4806021680D
:1030600008602068406820F4E060216848602068BB
:103070000069C1B2626A501C60621170608D401EAE
:103080006085202084F83D000020206394F83E00F5
:10309000402806D1002084F83E002046FEF714FDAB
:1030A00005E0002084F83E002046FEF754FC00BFF7
:1030B000002070BD70B50446E56A94F83D002128F3
:1030C00046D1608D48B1616A481C60620878216809
:1030D0000861608D401E60853AE0042D16D0082DF1
:1030E00014D015F5803F11D02068406820F4E060CE
:1030F0002168486011202063002084F83E002020D1
:1031000084F83D002046FEF727FC21E02068406857
:1031100020F4E060216848602068006840F4007096
:103120002168086000202063202084F83D0094F886
:103130003E00402806D1002084F83E002046FEF7DD
:10314000C4FC05E0002084F83E002046FEF704FCA5
:10315000002070BD2DE9F041044694F83D5094F8EC
:103160003E70E66A208DB0BB212D3CD1042E16D0D6
:10317000082E14D016F5803F11D02068406820F446
:10318000E0602168486011202063002084F83E0040
:10319000202084F83D002046FEF7DEFB7CE020681E
:1031A000406820F4E060216848602068006840F4CE
:1031B00000702168086000202063202084F83D0012
:1031C00094F83E00402807D1002084F83E002046B5
:1031D000FEF77BFC60E006E0002084F83E0020461D
:1031E000FEF7BAFB58E0212D03D0402F54D1222DF9
:1031F00052D1608D30B92068406820F48060216829
:10320000486049E094F83E0040283CD1206D98B9D0
:10321000E06C012807D1A06CC0B221680861206D64
:10322000801C206538E0A06CC0F30720216808618D
:10323000206D401C20652FE0206D012807D1A06C77
:10324000C0B221680861206D401C206524E0206D1B
:10325000022821D194F83D00222806D12068006878
:1032600040F480702168086016E094F83D00212841
:1032700012D1616A481C6062087821680861608D1B
:10328000401E608508E0616A481C60620878216819
:103290000861608D401E60850020BDE8F081014618
:1032A000486CC0B20A6810610020704738B501460A
:1032B00091F83E30CA6A0C6B91F83D00222873D118
:1032C000086D60B9402B0AD100BF0020009008684B
:1032D0004069009008688069009000BF07E1086DB0
:1032E000C0B90869B0F5404F14D100BF002000906C
:1032F00008684069009008688069009000BF00BFBE
:103300000868006840F480700D682860086D401CF3
:103310000865ECE0488D88B900BF0020009008687F
:103320004069009008688069009000BF00BF08688D
:10333000006840F400700D682860CAE0488D0128DC
:103340006CD112F5803F30D10868006820F48060AD
:103350000D6828600868406800F40060B0F5006FF0
:1033600010D10868006820F480600D68286000BFF4
:10337000002000900868406900900868806900900B
:1033800000BFA6E000BF00200090086840690090E0
:1033900008688069009000BF00BF0868006840F4BA
:1033A00000700D68286094E096E0042A1ED0082A78
:1033B0001CD0122C1AD0C86A022806D008680068EF
:1033C00020F480600D68286005E00868006840F41B
:1033D00080600D68286000BF002000900868406988
:1033E000009008688069009000BF72E0086800687B
:1033F00020F480600D68286000BF002000900868FD
:103400004069009008688069009000BF00BF0868AC
:10341000006840F400700D6828605AE0488D02286A
:1034200039D1C86A022817D00868006840F40060E3
:103430000D68286000BF0020009008684069009077
:1034400008688069009000BF00BF0868006820F429
:1034500080600D68286010E00868006840F48060B3
:103460000D68286000BF0020009008684069009047
:1034700008688069009000BF00BF0868406800F4D9
:103480000060B0F5006F24D10868406840F48050B7
:103490000D6868601DE00868006840F480600D6891
:1034A00028600868406800F40060B0F5006F05D13E
:1034B0000868406840F480500D68686000BF0020D4
:1034C000009008684069009008688069009000BF1B
:1034D00000BF002008650AE000BF002000900868D7
:1034E0004069009008688069009000BF00BF00201C
:1034F00038BD014691F83E0040280ED1086D28B92C
:10350000486C00F0FE000A68106131E0486CC0B2FF
:1035100040F001000A6810612AE00869B0F5804FA8
:1035200010D191F83D00212805D1486C00F0FE0033
:103530000A6810611CE0486CC0B240F001000A68E3
:10354000106115E0086D40B9486C00F44070F0223D
:1035500042EAE0100A6810610AE0086D012807D10C
:10356000486C00F44070F12242EAE0100A681061F1
:10357000002070470146488D48B108680069C2B212
:103580004B6A581C48621A70488D401E48850020BE
:10359000704770B5044694F83D50608DD8B12068EE
:1035A0000069C1B2626A501C60621170608D401E79
:1035B0006085608D78B92A2D0DD12068406820F48F
:1035C00080602168486022202063282084F83D0024
:1035D0002046FEF7F7FA002070BD0146488D40B145
:1035E0004A6A501C486210780A681061488D401E73
:1035F00048850020704770B5044694F83D50608DB2
:10360000D0B1616A481C6062087821680861608DE9
:10361000401E6085608D78B9292D0DD120684068E5
:1036200020F480602168486021202063282084F8ED
:103630003D002046FEF7C7FA002070BD70B5044675
:103640000025002620688069C0F3800000B90125AC
:1036500020688069C0F3C01010B9A08986B201E06B
:10366000208B86B2324629462046FDF7F6FF002021
:1036700070BD000038B5044694F83D50206840689D
:1036800020F4E0602168486000BF002000902068BE
:10369000406900902068006840F0010021680860DF
:1036A00000BF00BF2068006820F4806021680860C7
:1036B0002068406800F40060B0F5006F10D194F805
:1036C0003D00222803D094F83D002A2804D1A06BA5
:1036D00000684068608503E0606B00684068608552
:1036E000608D08B320684069C0F3800048B120684D
:1036F0000069C1B2626A501C60621170608D401E28
:10370000608520684069C0F3801048B12068006976
:10371000C1B2626A501C60621170608D401E60858B
:10372000206C40F004002064206C18B12046FFF7A4
:1037300019FB23E0282D03D02A2D01D0292D0DD1EE
:103740000F48E06200202063202084F83D00002024
:1037500084F83E002046FEF7FDF80FE0206B22289B
:1037600001D0222D0AD100202063202084F83D00C2
:10377000002084F83E002046FEF724FA002038BDE1
:103780000000FFFF0EB5002000900190029012484B
:1037900012490860002111488160C16041614FF405
:1037A0006021C16100200D49486001210B48016181
:1037B000FDF7D8F908B1FDF78CF80620009001203C
:1037C00001900020029069460448FDF785F808B191
:1037D000FDF77FF80EBD0000002401409C00002092
:1037E00008B500BF0E48406940F001000C4948612F
:1037F0000846406900F00100009000BF00BF0022B1
:1038000005211020FEF781FA1020FEF771FA002240
:1038100005211120FEF779FA1120FEF769FA08BD9B
:103820000010024000B585B0002001900290039086
:10383000049000BF3348806940F01000314988612E
:103840000846806900F01000009000BF00BF00BF74
:103850000846806940F0200088610846806900F0D1
:103860002000009000BF00BF00BF0846806940F004
:10387000040088610846806900F00400009000BFE1
:1038800000BF00BF0846806940F008008861084614
:10389000806900F00800009000BF00BF00224FF4D4
:1038A000C0411948FDF7CCFE00223F211748FDF723
:1038B000C7FE4FF4005001900120029000200390B9
:1038C0000220049001A91048FDF728FD4FF4804024
:1038D000019001200290002003900320049001A990
:1038E0000948FDF71BFD3F200190012002900020B8
:1038F00003900220049001A90448FDF70FFD05B0D4
:1039000000BD00000010024000100140000801400E
:1039100010B50B480B4908600B4848600021094866
:103920008160C1604FF4804101610021416181618A
:10393000C1610162FDF750FF08B1FCF7CAFF10BD7D
:1039400000540040CC00002040420F0000B587B07A
:103950000020039004900590069001900290144876
:1039600014490860472048600021124881604D21B9
:10397000C160002101618161FEF70FFF08B1FCF712
:10398000A8FF4FF48050039003A90A48FEF751FFA7
:1039900008B1FCF79EFF00200190029001A90548A4
:1039A000FEF7CAFE08B1FCF794FF07B000BD0000A7
:1039B00000040040A801002000BFFEE7704700009F
:1039C00002480068C0F30220704700000CED00E0E0
:1039D00010B5002807DA0A07140E054A00F00F0395
:1039E0001B1FD45403E00A07130E024A135410BDE0
:1039F00018ED00E000E400E008B508490968C908CE
:103A00004FF47A72B1FBF2F14143009100BF00BF65
:103A100000994A1E00920029F9D108BD3800002003
:103A200008B500F079FE00F0D3FD0121084600F052
:103A3000FFFD00BFFE48FDF731FA6421FC48FDF7A9
:103A400075F9FB48FCF7F9FF85B240F6485085420E
:103A500001DD002616E040F6FC00854201DD01266E
:103A600010E040F29B50854201DD02260AE040F260
:103A7000B220854201DD032604E09D2D01DD0426F0
:103A800000E00526012E2CD1EA480088032813D037
:103A9000E8480088401CE749088008460088032859
:103AA00022D10120E44908700020E4490880E4495B
:103AB0000870E449088017E0E0480088401CDF49AE
:103AC0000880E148DE49097830F81100DB490988AF
:103AD000884209DC0120D84908700020D7490880B5
:103AE00002E00020D3490880022E2CD1D74800885C
:103AF000032813D0D5480088401CD44908800846C4
:103B00000088032822D10220CB4908700020CB492D
:103B10000880CB490870CB49088017E0C748008867
:103B2000401CC6490880C848C549097830F81100CA
:103B3000C2490988884209DC0220BF490870002078
:103B4000BE49088002E00020C0490880032E2BD126
:103B5000BF480088032812D0BD480088401CBC49DB
:103B6000088008460088032821D1B3490870002046
:103B7000B2490880B2490870B249088017E0AF48DE
:103B80000088401CAD490880AF48AD49097830F83D
:103B90001100AA490988884209DC0320A649087057
:103BA0000020A649088002E00020A9490880042ED0
:103BB0002CD1A8480088032813D0A6480088401CB0
:103BC000A449088008460088032822D104209A4985
:103BD000087000209949088099490870994908801F
:103BE00017E096480088401C9449088096489449FC
:103BF000097830F8110091490988884209DC0420CD
:103C00008D49087000208D49088002E0002091490C
:103C10000880052E2CD190480088032813D08E48A8
:103C20000088401C8C49088008460088032822D15F
:103C3000052081490870002080490880804908706B
:103C40008049088017E07D480088401C7B49088037
:103C50007D487B49097830F8110078490988884205
:103C600009DC05207449087000207449088002E0CE
:103C700000207949088071480088E8B171480088BF
:103C8000C82819D06F480088401C6E490880084633
:103C90000088322802D101206949087069480088EB
:103CA000642802D102206649087066480088C82846
:103CB00002D10320624908705F480078062807D2C5
:103CC000DFE800F0A7030736658600205A49087030
:103CD0009FE000205849087060480068FCF71FFC0E
:103CE00082465F4A5F4BFCF770FB07460022134693
:103CF000FCF740FC13D259480068FCF710FC8246E0
:103D0000574A584BFCF761FB0746FCF74BFC5349FD
:103D100008600120544908705449087007E00020E9
:103D20004E4908600120504908705049087070E001
:103D30000020414908704E480068FCF7F0FB8246BD
:103D40004C4A4D4BFCF741FB074600221346FCF75B
:103D500011FC13D246480068FCF7E1FB8246454A55
:103D6000454BFCF732FB0746FCF71CFC404908605A
:103D700001203D4908703D49087007E000203C499A
:103D800008600120384908703849087041E0002077
:103D90002949087036480068FCF7C1FB0746374AD6
:103DA000374BFCF7CFFB12D231480068FCF7B7FB6A
:103DB0000746304A304BFCF767FA8246FCF7F2FBC5
:103DC0002B4908600120284908702849087020E024
:103DD00000201949087021480068FCF7A0FB07463D
:103DE000284A294BFCF7AEFB12D21C480068FCF7AE
:103DF00096FB07461A4A1B4BFCF746FA8246FCF72D
:103E0000D1FB16490860012017490870174908704E
:103E100000BF00BF1448007848B100201249087064
:103E20001A490E480068FCF7FDF9804630E058E07A
:103E30009C000020220000201B0000201E0000200B
:103E40001C00002020000020F05600082400002064
:103E500026000020280000202A000020100000205A
:103E6000FCA9F1D24D62503F190000201A00002039
:103E700014000020FA7E6ABC7493583FCDCCCCCCA1
:103E8000CCCCDC3FB81E85EB51B89E3F00007A4495
:103E9000FCF718FB87B23A4636A1384800F09EF985
:103EA0000121084600F0C4FB344800F0ABFC344864
:103EB0000068FCF734FB07460022324BFCF78BFA14
:103EC0008246FCF713FB80B202462AA100902B48E1
:103ED00000F084F90121022000F0AAFB274800F03D
:103EE00091FC29480078E8B3002027490870002495
:103EF00037E0264931F81400FCF7DFFA8046244801
:103F000001684046FCF78EF90746FCF7DBFA1FFA1A
:103F100080F94FEA29201F4901F81400012101EB23
:103F200044011C4A02F80190184931F81400FCF7CA
:103F3000C4FA8046124801684046FCF773F9074608
:103F4000FCF7C0FA1FFA80F94FEA2920124901F85C
:103F50001400012101EB44010F4A02F80190601C9A
:103F6000C4B200E001E0802CC3DB142000F0E9FCC7
:103F700060E500002530337500000000E8030020F4
:103F80001400002000D484401A000020F0550008DE
:103F900010000020E8010020E80200200348FEF79E
:103FA00039FC00BFC82000F0CCFCFBE7A8010020D2
:103FB00010B500BF502080F31188BFF34F8FBFF3BF
:103FC0006F8F00BF01F0EEF918B14FF08050044937
:103FD000086000BF002080F3118800BF10BD000002
:103FE00004ED00E000B593B0282109A8FCF70FF913
:103FF000142104A8FCF70BF9002000900190029016
:1040000003900120099000040A9000200B900120E9
:104010000D9002201090C10311914FF4E011129104
:1040200009A8FEF767F908B1FCF753FC0F200490CC
:1040300002200590002006904FF480600790002039
:104040000890022104A8FDF7DBFF08B1FCF741FC52
:1040500002200090800302906846FDF739FF08B106
:10406000FCF737FC13B000BD1148006840F00100B8
:104070000F490860084640680E4908400C494860EE
:10408000084600680C49084009490860084600686D
:1040900020F4802008600846406820F4FE00486054
:1040A0004FF41F008860C80304490860704700008F
:1040B000001002400000FFF8FFFFF6FE08ED00E0F0
:1040C00010B50248FEF74FFC10BD0000A80100200B
:1040D00010B50248FEF747FC10BD0000F8030020B1
:1040E00000220268184B984208D0B0F1804F05D0EA
:1040F000164B984202D0164B984203D122F0700220
:104100004B681A43104B984208D0B0F1804F05D04D
:104110000E4B984202D00E4B984203D122F44072CB
:10412000CB681A4322F080024B691A4302608B6805
:10413000C3620B688362044B984201D10B6903632D
:104140000123436170470000002C0140000400403F
:104150000008004030B50C460021816821F47F4101
:1041600042EA032525432943816030BD0A460021E8
:10417000816821F0700142F00703194381607047A4
:1041800030B50B46144600210022026A056A25F06C
:1041900001050562816921F0F00141EA041122F074
:1041A0000A021A438161026230BD30B50B461446E3
:1041B00000210022056A25F0100505628169026A66
:1041C00021F4704141EA043122F0A00242EA0312D4
:1041D0008161026230BD00BFFEE700000FB4084BF2
:1041E00010B504A902AA039800F01CF8044602A91D
:1041F000002000F0B8F9204610BC5DF814FB000068
:104200006745000802E008C8121F08C1002AFAD159
:1042100070477047002001E001C1121F002AFBD146
:10422000704700002DE9FF4F8BB0884605460026F9
:1042300006E025280BD0DDE90D1290476D1C761C99
:1042400028780028F5D10FB03046BDE8F08F002463
:10425000A146A2460122AE4900E0044315F8013F01
:10426000203B02FA03F00842F7D128782A2810D020
:104270006FF02F022878A0F13001092915D809EB39
:10428000890102EB410144F0020400EB01096D1CBD
:10429000F0E758F8041B5FEA010903D544F4005421
:1042A000C9F1000944F002046D1C28782E2817D1AA
:1042B00015F8010F44F004042A280ED06FF02F02E5
:1042C0002878A0F1300109290AD80AEB8A0102EB0B
:1042D000410100EB010A6D1CF2E758F804AB6D1CBC
:1042E00028786C280FD006DC4C2817D068280DD011
:1042F0006A2814D104E0742810D07A280FD10DE078
:1043000044F400140AE044F4801401E044F440143E
:104310006978814202D104F580146D1C6D1C2878E7
:10432000692865D006DC00288DD0632827D0642852
:1043300006D15DE06E2808D073282AD0752877D082
:10434000DDE90D129047761CE0E0C4F3025002282C
:1043500009D003280DD0D8F8001004280DD00E6025
:1043600008F10408D2E0D8F80010F217C1E90062A1
:10437000F6E7D8F800100E80F2E70E70F0E718F8B4
:10438000041B8DF8001000208DF80100EB46012081
:1043900003E058F804BB4FF0FF3061074FF000070F
:1043A00001D40AE07F1C57450DDA8742FADB1BF87F
:1043B00007100029F6D106E07F1C8742FCDB1BF8C2
:1043C00007100029F8D1DDE90D23A9EB070081468C
:1043D000214600F0B1F83044C61904E0DDE90D12C1
:1043E0001BF8010B90477F1EF8D22146484688E013
:1043F00058F8040BC4F302514FF00A0B032900D103
:1044000000B2042900D140B2002802DA40422D2136
:1044100002E0210505D52B218DF82410012104E0AF
:1044200006E0E10710D02021F6E708AF089113E07D
:1044300058F8040BC4F302514FF00A0B032900D1C2
:1044400080B2042900D1C0B20021EEE75946FCF742
:10445000C5F8303107F8011D0028F7D1ADEB070092
:1044600000F1200B600702D524F4803401E04FF006
:10447000010ADA4502DDAAEB0B0000E000208246CB
:1044800000EB0B0108980144A9EB01000A90E0033E
:1044900006D4DDE90D2321460A9800F04DF80644C4
:1044A0004FF0000908E009A911F80900DDE90D1233
:1044B000904709F10109761C08998945F3DBE0036F
:1044C0000CD5DDE90D2321460A9800F035F80644A5
:1044D00004E0DDE90D1230209047761CBAF10001AE
:1044E000AAF1010AF5DC05E0DDE90D1217F8010B70
:1044F0009047761CBBF10001ABF1010BF4DC0A988C
:104500002146DDE90D2300F005F806446D1C97E611
:10451000092801002DE9F041044600251E461746F2
:10452000880404D405E039462020B0476D1C641E81
:10453000F9D52846BDE8F0812DE9F0410446002573
:104540001E469046C80301D5302700E02027880486
:1045500004D505E041463846B0476D1C641EF9D5C8
:104560002846BDE8F0810A68531C0B601070704744
:1045700010B504460A48006820F0020008490860A7
:104580003C2C02D03E2C08D103E0102000F092F920
:1045900004E0142000F08EF900E000BF00BF10BD61
:1045A0000C08014001B5084800680849B0FBF1F06B
:1045B00000994843009002E00098401E0090009847
:1045C0000028F9D108BD00003800002040420F004B
:1045D00010B50648006820F0020004490860012078
:1045E00000F068F9C820FFF7DDFF10BD0C0801409E
:1045F00010B504460D48006820F002000B49086021
:10460000204600F045F800F041F90520FFF7CAFF09
:1046100000F03CF90520FFF7C5FF204600F09CF8AC
:1046200000F034F90520FFF7BDFF10BD0C08014074
:1046300070B505460C461448006820F00200124987
:104640000860062D1DD2DFE805F01C03080D1217C7
:1046500044F0800000F02EF914E044F0C00000F0B7
:1046600029F90FE044F0900000F024F90AE044F04A
:10467000D00000F01FF905E044F0400000F01AF906
:1046800000E000BF00BF70BD0C0801407047000093
:1046900000F0800131B11F49096841F020011D4A35
:1046A000116005E01B49096821F02001194A1160D9
:1046B00000F0400131B11749096841F01001154A75
:1046C000116005E01349096821F01001114A1160D9
:1046D00000F0200131B10F49096841F008010D4A8D
:1046E000116005E00B49096821F00801094A1160D1
:1046F00000F0100131B10749096841F00401054A91
:10470000116005E00349096821F00401014A1160C4
:10471000704700000C08014010B5FFF7B7FF3020CC
:1047200000F0C8F84FF4C870FFF73CFF302000F0ED
:10473000C1F84FF4C870FFF735FF2820FFF758FF86
:104740000C2000F095F8062000F092F8FFF740FFEB
:1047500000F07EF810BD000000F0080131B11F49E3
:10476000096841F020011D4A116005E01B490968F4
:1047700021F02001194A116000F0040131B11749FC
:10478000096841F01001154A116005E013490968F4
:1047900021F01001114A116000F0020131B10F49FE
:1047A000096841F008010D4A116005E00B490968EC
:1047B00021F00801094A116000F0010131B10749F7
:1047C000096841F00401054A116005E003490968E0
:1047D00021F00401014A1160704700000C080140FB
:1047E00010B504460648006840F00200044908601D
:1047F000204600F05FF80120FFF7D4FE10BD000056
:104800000C08014070B504461EE020780A2804D147
:1048100000210220FFF70CFF15E020780D2802D1BF
:1048200000F016F80FE02078092809D1002504E0EF
:104830003E20FFF79DFE681CC5B2042DF8D302E0B0
:104840002078FFF7CDFF641C20780028DDD170BDF3
:1048500010B50648006820F00200044908600220F4
:1048600000F028F8C820FFF79DFE10BD0C0801409D
:1048700010B504460448006820F0020002490860B0
:10488000204600F017F810BD0C08014010B508488C
:10489000006840F00100064908600120FFF782FE31
:1048A0000348006820F001000149086010BD0000C5
:1048B0000C08014010B504462046FFF7E9FEFFF75B
:1048C000E5FF2046FFF748FFFFF7E0FF0520FFF771
:1048D00069FE10BD8AB0FDF783F9FFF783FBFEF791
:1048E000A1FFFEF77DFFFFF713F8FFF72FF8FEF7A4
:1048F00049FF14220C4905A8FBF770FC002105A80C
:1049000000F030F80949086014220749143168465C
:10491000FBF764FC0021684600F024F804490860B5
:1049200000F01BF800BFFEE7F8560008000000206A
:104930000400002001460020842901D0CA1C104434
:10494000704770B5044625460DB1294600E00121A7
:10495000084600F0E7FB002070BD10B500F010FC29
:10496000002010BDFEB504460D46B4F90800FFF75F
:10497000E1FF064602A8CDE90060238A9AB22B46E1
:10498000D4E9001000F0DEFC012801D00020FEBDBB
:104990000298FCE72DE9F04105460E461C480768E1
:1049A0001C480068001D00F0D1FA50B91948006891
:1049B00090F82C1001208840174909688143164857
:1049C0000160681C38B936B112480168091D1348E6
:1049D00000F0FAFA1AE07C190E4800684460BC4204
:1049E00007D20C480168091D0D48006800F0D2FA92
:1049F0000CE008480168091D0A48006800F0CAFA7E
:104A000009480068844201D207480460BDE8F0818B
:104A1000500000203C00002054000020140500201D
:104A200044000020400000206C00002010B5044627
:104A300000F0D6FA23480068401C2249086022484A
:104A4000006840B9204804600846006801280DD17C
:104A500000F02AF90AE01D48006838B91A480068D1
:104A6000C06AE16A884201D81748046018480068A3
:104A7000401C1749086094F82C1001208840154903
:104A80000968084313490860E16A01EB8101124A91
:104A900002EB8100211D00F097FA00F0CBFA0B48E1
:104AA000006868B108480068C06AE16A884207D2B5
:104AB0004FF0805009490860BFF34F8FBFF36F8FED
:104AC00010BD00004C0000203C00002058000020D9
:104AD00068000020540000203804002004ED00E0AD
:104AE00070B523E000F090FB1348006808B901207E
:104AF00000E00020054600F0F9FCBDB900F070FAB6
:104B00000D48C068C468201D00F020FA0B480068FA
:104B1000401E0A4908600A480068401E08490860AB
:104B200000F088FA204600F00DF800BF0448006845
:104B30000028D7D170BD0000000500204C000020E7
:104B40004800002010B50446206B00F091FA204682
:104B500000F08EFA10BD000030B54FF440631748E6
:104B600000F007042CB1C01D20F00700134C041BFB
:104B70001B1B0246124C22600024114D6C60D018A1
:104B8000083820F007000F4C206000240D4D2D68E0
:104B90006C600C4D2D682C601146441A4C60094C19
:104BA00024680C60084D4C682C60084D4C682C60E3
:104BB0004FF00044064D2C6030BD00002805002059
:104BC0007800002080000020880000208400002061
:104BD0008C00002000BFFFF783FF06480068012813
:104BE000F9D94FF0805004490860BFF34F8FBFF3ED
:104BF0006F8FF0E73804002004ED00E02DE9FF5F3F
:104C000081460F469246DDE90E6B109CAAF1010029
:104C1000216B01EB800828F0070808F0070008B9AD
:104C2000012000E0002050B900BF502080F311881F
:104C3000BFF34F8FBFF36F8F00BF00BFFEE70025AC
:104C400007E0795D04F134004155785D00B902E078
:104C50006D1C102DF5D300BF002143200155072EF8
:104C600000D30626E66266640020A064201D00F0E2
:104C70008EF904F1180000F08AF92461C6F10700EA
:104C8000A06164620020E06484F850004946404618
:104C9000039A00F049F92060BBF1000F01D0CBF876
:104CA0000040BDE8FF9F000010B5002407E004EBC2
:104CB00084010F4A02EB810000F05CF9641C072CB0
:104CC000F5D30C4800F056F90B4800F053F90B48A7
:104CD00000F050F90A4800F04DF90A4800F04AF98E
:104CE00004480949086004480849086010BD0000EC
:104CF00038040020C4040020D8040020EC04002064
:104D00000005002014050020400000204400002081
:104D100010B50146164800E0006803688B42FBD3DB
:104D20000246436813448B4204D143684C682344D1
:104D3000436001460A464B6813440468A34211D1FC
:104D40000C4C03682468A34208D04B68046864686C
:104D500023444B6003681B680B6005E0054B1B6830
:104D60000B6001E003680B60884200D0016010BD59
:104D700078000020800000200A490968096809B904
:104D8000012100E0002121B14FF0FF31064A1160FE
:104D900006E004490968C968C868034A41681160A7
:104DA00070470000400000206C0000200E480068A2
:104DB000401C08B9012000E0002050B900BF50207D
:104DC00080F31188BFF34F8FBFF36F8F00BF00BF19
:104DD000FEE700BF502080F31188BFF34F8FBFF371
:104DE0006F8F00BF00BFFEE7900000202DE9F0416B
:104DF00004464FF0000800F007FA4648006808B97A
:104E0000FFF7AAFE44480068204000286BD1D4B1C7
:104E1000083404F00700B0B104F00700C0F1080046
:104E2000044404F0070008B9012000E0002050B954
:104E300000BF502080F31188BFF34F8FBFF36F8FF7
:104E400000BF00BFFEE7002C4DD03448006884420C
:104E500049D8334E3046056801E02E462D68686813
:104E6000A04202D228680028F7D12A48006885426B
:104E700039D0306800F10808286830606868001B85
:104E8000102819D92F1907F0070008B9012000E0F0
:104E9000002050B900BF502080F31188BFF34F8F1E
:104EA000BFF36F8F00BF00BFFEE76868001B78602C
:104EB0006C603846FFF72CFF184968680968081AC3
:104EC000164908600846006816490968884203D2F6
:104ED00012480068134908600F4968680968084368
:104EE00068600020286000F001FB08F0070008B9A6
:104EF000012000E0002050B900BF502080F311884D
:104F0000BFF34F8FBFF36F8F00BF00BFFEE7404678
:104F1000BDE8F081800000208C000020840000208B
:104F20007800002088000020001F4FF0807303608D
:104F3000001F21F001030360001F034B03601438BE
:104F40000260203870470000AD4D000801460A6934
:104F5000D1E901309860D1E9010358605068884276
:104F600001D188685060002008611068401E106000
:104F70001068704700F1080141604FF0FF31816017
:104F800000F10801C160016100210160704700214A
:104F90000161704710B502460B685C1C0CB91069C2
:104FA00007E002F1080000E04068446824689C4281
:104FB000FAD944684C604C68A160886041600A611D
:104FC0001468641C146010BD42684A6093688B606A
:104FD000936859609160086103685B1C03607047C7
:104FE00000BF502080F31188BFF34F8FBFF36F8F46
:104FF00000BF0E480068401C0C4908600846006865
:10500000012812D10A480068C0B208B9012000E0A6
:10501000002050B900BF502080F31188BFF34F8F9C
:10502000BFF36F8F00BF00BFFEE770479000002006
:1050300004ED00E00D48006850B900BF502080F337
:105040001188BFF34F8FBFF36F8F00BF00BFFEE724
:1050500006480068401E054908600846006820B9F7
:10506000002080F3118800BF00BF7047900000202F
:1050700070B506463546002E3FD0083D2C461F49E8
:1050800060680968084008B1012000E0002050B9BC
:1050900000BF502080F31188BFF34F8FBFF36F8F95
:1050A00000BF00BFFEE7206808B9012000E0002033
:1050B00050B900BF502080F31188BFF34F8FBFF36A
:1050C0006F8F00BF00BFFEE70C49606809680840A9
:1050D00098B1206888B909496068096888436060A8
:1050E00000F092F8064960680968084404490860BD
:1050F0002046FFF70DFE00F0F9F970BD8C0000208E
:1051000084000020064800684FF47A71B0FBF1F08B
:10511000401E4FF0E0214861072008617047000001
:105120003800002070B504460025D4B1124800684C
:1051300008B9012000E0002050B900BF502080F3E2
:105140001188BFF34F8FBFF36F8F00BF00BFFEE723
:1051500000F05AF800212046FFF71CFC00F0C6F9C9
:1051600005463DB94FF0805004490860BFF34F8FAA
:10517000BFF36F8F70BD00007400002004ED00E0ED
:105180001CB51A4800210B468022CDE9001018A159
:10519000194800F0D7F80446012C15D100BF502063
:1051A00080F31188BFF34F8FBFF36F8F00BF4FF0B5
:1051B000FF301249086001201149086000201149A0
:1051C000086000F06FF810E0601C08B1012000E0FA
:1051D000002050B900BF502080F31188BFF34F8FDB
:1051E000BFF36F8F00BF00BFFEE71CBD7000002043
:1051F00049444C4500000000D54B00086C000020DD
:10520000580000205000002002480068401C01495E
:1052100008607047740000201D48006818B1012024
:105220001C49086032E000201A4908601A480068EA
:10523000B0FA80F0C0F11F0101EB8100174A52F86B
:10524000200008B1012000E0002050B900BF50202C
:1052500080F31188BFF34F8FBFF36F8F00BF00BF84
:10526000FEE701EB81020D4B03EB820042685268BE
:10527000426000F108024368934202D142685268DA
:1052800042604268D268064B1A6000BF7047000057
:10529000740000206000002054000020380400202A
:1052A0003C0000201CB52248014609780191FF21ED
:1052B000024611700146097800919DF8001001F036
:1052C00050011C4A117007211B4A116009E01A495C
:1052D0000968491E184A11609DF800104906090E18
:1052E00000919DF8001001F080018029EFD0124953
:1052F00009680902104A11601146098801F4E06149
:1053000011600B4A019911700C48006840F470005C
:105310000A4908600846006840F070400860FFF7DE
:10532000F1FE002006490860FAF7FCFE00201CBDD3
:1053300000E400E0940000209800002020ED00E050
:10534000900000202DE9FF4F85B080468946174622
:10535000DDE912ABB800FFF749FD064656B154200F
:10536000FFF744FD04460CB1266304E03046FFF726
:105370007FFE00E000247CB10020CDE900ABCDE948
:1053800002403A4649464046089BFFF737FC204614
:10539000FFF74CFB012501E04FF0FF35284609B02F
:1053A000BDE8F08F2DE9F0414FF000084448006857
:1053B000002877D143480068451C4248056015BB6A
:1053C00041480068006808B9012000E0002050B999
:1053D00000BF502080F31188BFF34F8FBFF36F8F52
:1053E00000BF00BFFEE73848076838480068364904
:1053F00008603648076036480068401C3449086039
:10540000FFF7BAFC00BF3348006885423CD300BFB9
:105410002D480068006808B9012000E0002020B194
:105420004FF0FF302B4908602DE027480068C06826
:10543000C4686668B54202D22648066023E0201D93
:10544000FFF784FDA06A18B104F11800FFF77EFD94
:1054500094F82C10012088401F49096808431E4910
:105460000860E16A01EB81011C4A02EB8100211D09
:10547000FFF7AAFD1A49E06A0968C96A8842C7D3DA
:105480004FF00108C4E700BF15480068C06A00EB90
:105490008000124951F82000012801D94FF001087D
:1054A00005E0FFE70F480068401C0E4908600E4801
:1054B000006808B14FF001084046BDE8F0810000E7
:1054C0007400002050000020400000204400002014
:1054D000640000206C0000205400002038040020EC
:1054E0003C0000205C0000206000002070B500241B
:1054F00000263648006850B900BF502080F311885C
:10550000BFF34F8FBFF36F8F00BF00BFFEE7FFF702
:1055100067FD2E480068401E2C4908600846006858
:1055200000284FD12A48006800284BD024E02948A1
:10553000C068C46804F11800FFF708FD201DFFF7DC
:1055400005FD94F82C100120884023490968084380
:1055500021490860E16A01EB8101204A02EB8100E8
:10556000211DFFF731FD1E49E06A0968C96A8842BA
:1055700002D301201B4908601648006808B90120C1
:1055800000E000200028D2D00CB1FFF7F5FB164850
:10559000056865B100BFFFF705FF10B10120114993
:1055A00008606D1E002DF6D100200F4908600D48DF
:1055B000006838B1012630070C490860BFF34F8FEF
:1055C000BFF36F8FFFF736FD304670BD74000020CB
:1055D0004C000020EC04002054000020380400207F
:1055E0003C000020600000205C00002004ED00E092
:1055F00000086408C8082C098F09F109520AB10A89
:105600000F0B6B0BC50B1C0C710CC30C120D5F0D3B
:10561000A70DED0D2E0E6C0EA60EDC0E0D0F3A0F23
:10562000630F870FA70FC20FD80FE90FF50FFD0FFC
:10563000FF0FFD0FF50FE90FD80FC20FA70F870F50
:10564000630F3A0F0D0FDC0EA60E6C0E2E0EED0D35
:10565000A70D5F0D120DC30C710C1C0CC50B6B0B51
:105660000F0BB10A520AF1098F092C09C808640806
:1056700000089B073707D30670060E06AD054E05DA
:10568000F00494043A04E3038E033C03ED02A00209
:1056900058021202D101930159012301F200C50001
:1056A0009C00780058003D00270016000A00020008
:1056B000000002000A00160027003D005800780094
:1056C0009C00C500F200230159019301D10112028F
:1056D0005802A002ED023C038E03E3033A04940453
:1056E000F0044E05AD050E067006D30637079B077E
:1056F0000F000700040001005C5700089D3F0008F0
:10570000000000000000000080000000505700086A
:10571000213A0008000000000000000080000000A6
:105720000000000000000000010203040607080951
:10573000000000000102030401000101400000001C
:105740004011002040150020C0150020000000007E
:10575000427574746F6E735461736B006465666137
:10576000756C745461736B0088570008000000204A
:105770009C00000004420008245800089C000020FF
:105780004C19000014420008000000000000000056
:105790000000000000000000000000000000000009
:1057A00000010100000000000000000000000000F7
:1057B00000000000000000001000000001000000D8
:1057C00000A24A04000000000000000000000000E9
:1057D00000000000000000000000000000000000C9
:1057E00000000000000000000000000000000000B9
:1057F00000000000000000000000000000000000A9
:105800000000000000000000000000000000000098
:105810000000000000000000AAAAAAAA00000000E0
:045820000000000084
:04000005080000ED02
:00000001FF
